:020000040800F2
:10000000800A00205D6A00086D0300086F03000885
:1000100073030008770300087B030008000000005A
:100020000000000000000000000000007F03000846
:100030008103000800000000830300088503000816
:10004000776A0008776A0008776A0008776A00080C
:10005000776A0008776A0008776A0008776A0008FC
:10006000776A0008776A0008776A0008776A0008EC
:10007000776A0008776A0008776A0008776A0008DC
:10008000776A0008776A0008776A0008776A0008CC
:100090005B110008776A0008776A0008F30D000812
:1000A000776A0008776A0008776A0008776A0008AC
:1000B000776A0008776A0008F12F0008776A00085D
:1000C000776A0008776A0008776A0008776A00088C
:1000D000776A0008D90A0008776A0008CB28000868
:1000E000776A0008776A0008776A0008776A00086C
:1000F000776A0008776A0008776A0008776A00085C
:10010000776A0008776A00081F0C0008776A000801
:10011000776A0008776A0008776A0008776A00083B
:10012000776A0008776A0008776A0008776A00082B
:10013000776A0008776A0008776A0008776A00081B
:10014000776A0008776A0008776A0008776A00080B
:10015000776A0008776A0008776A0008A70900082C
:10016000776A0008776A0008776A0008776A0008EB
:10017000776A0008776A0008776A0008776A0008DB
:10018000776A0008776A000800F002F800F06DF85E
:100190000AA090E8000C82448344AAF10107DA45E2
:1001A00001D100F062F8AFF2090EBAE80F0013F0C7
:1001B000010F18BFFB1A43F001031847287800000D
:1001C000487800000A444FF0000C10F8013B13F08F
:1001D000070408BF10F8014B1D1108BF10F8015BA0
:1001E000641E05D010F8016B641E01F8016BF9D193
:1001F00013F0080F1EBF10F8014BAD1C0C1B09D1EA
:100200006D1E58BF01F801CBFAD505E014F8016B5B
:1002100001F8016B6D1EF9D59142D6D370470000ED
:100220000023002400250026103A28BF78C1FBD8FF
:10023000520728BF30C148BF0B607047642906F0E1
:100240008B84752906F08884782906F0C184632997
:1002500006F01586732906F01A86002070471FB530
:1002600007F021FB1FBD10B510BD06F043FE11467F
:10027000FFF7F5FF00F008F806F061FE03B4FFF7A2
:10028000F2FF03BC02F0BAFA4FF4A06003F026FCC0
:10029000A82002F031FA4FF4E13002F0BEFA532107
:1002A00040F2E73000F090FC00F076F900F02EFA12
:1002B00000F05AFD532140F2F31000F0C1FA4FF460
:1002C000E13000F0B3FB4FF4165000F009FB01F0F1
:1002D00091F801F0BBF900F0ABFD00F081FE02F0F7
:1002E00058F802F01EF91A484168542088474FF424
:1002F000FA71062000F022FD7D21164804F06DFA07
:1003000025E01548007820B100201349087001F05D
:1003100077FF1248007810B100201049087010488B
:10032000007820B100200E49087002F07AF80D48DC
:10033000007810B100200B4908700B48007820B1FC
:1003400000200949087000F050F900F009FDD8E7D5
:10035000C4000020000400401E00002019000020FE
:100360001A0000201F00002018000020704700BF66
:10037000FEE700BFFEE700BFFEE700BFFEE77047F5
:1003800070477047704700000CB500200190009046
:100390007648006840F480307449086000BF7348B4
:1003A000006800F4003000900198401C0190009813
:1003B00018B90198B0F5A04FF1D16C48006800F46D
:1003C000003010B10120009001E000200090009862
:1003D000012846D165484030006840F080506349AC
:1003E000403108606248006840F44040604908605D
:1003F0005E48083000685D490831086008460068BA
:1004000040F4004008600846006840F4A0500860CE
:100410005848091F0860081F006840F08070091FD5
:10042000086000BF5148006800F000700028F9D053
:1004300040F20570504908604C480830006820F0D0
:1004400003004A49083108600846006840F002008D
:10045000086000BF45480830006800F00C0008281C
:10046000F8D10CBD10B54548006840F47000434910
:1004700008603E48006840F001003C4908600020E8
:100480003A4908310860394800683D490840374911
:1004900008603C48091D0860081F006820F480209F
:1004A000091F0860002031490C310860FFF76CFF1C
:1004B0004FF0006031498039086010BD70B50020F0
:1004C0000022022300240221284D08352D6805F062
:1004D0000C0020B1042806D0082834D107E02A4DAA
:1004E0002A4E356033E02A4D284E35602FE01F4DEF
:1004F0002D1D2D68C5F380541C4D2D1D2D6805F054
:100500003F0154B1224DB5FBF1F5184E361D36684A
:10051000C6F3881605FB06F209E01B4DB5FBF1F5A5
:10052000124E361D3668C6F3881605FB06F20F4DCF
:100530002D1D2D68C5F301456D1C6B00B2FBF3F555
:10054000124E356003E0104D104E356000BF00BF05
:10055000064D08352D68C5F303150E4E705D0B4D25
:100560002D68C540094E356070BD0000003802405E
:100570000070004008544007003C024088ED00E055
:10058000FFFFF6FE103000240024F40000000020DD
:1005900000127A00040000201CB50121402004F064
:1005A000F7FE4FF46040009001208DF80400002019
:1005B0008DF8060003208DF8050001208DF8070056
:1005C0006946704803F080FB4FF460416D4803F0CA
:1005D000F7FB00BF6C4B1B226CA172A006F060FA07
:1005E0007BA006F05DFA00BF1CBD10B57E48007808
:1005F00008287DD2DFE800F004132332404F5F6FFC
:1006000000207A49086001207949C1F8B802C1F890
:10061000BC0275480078401C7349087069E00120ED
:100620007249086000207249C1F8B8020120C1F87F
:10063000BC026D480078401C6B49087059E00120ED
:100640006A4908606A49C1F8B8020020C1F8BC02D2
:1006500065480078401C644908704AE001206349FD
:1006600008606349C1F8B802C1F8BC025E4800786E
:10067000401C5D4908703CE001205C4908605C4911
:10068000C1F8B8020020C1F8BC0257480078401CED
:10069000554908702DE00120544908600020544954
:1006A000C1F8B8020120C1F8BC024F480078401CD4
:1006B0004D4908701DE000204C49086001204C495C
:1006C000C1F8B802C1F8BC0247480078401C46494E
:1006D00008700EE00CE00120444908604449C1F86C
:1006E000B80242490831086000203F49087000E024
:1006F00000BF00BF00BF3F4B662224A129A006F027
:10070000CFF93DA006F0CCF900BF10BD1CB501210A
:10071000402004F03DFE8020009001208DF8040070
:1007200000208DF8060003208DF8050002208DF8CA
:1007300007006946134803F0C7FA8021114803F007
:1007400041FB00BF314B802210A116A006F0A8F992
:100750002FA006F0A5F900BF1CBD10B5234818381E
:100760000068C0432249C1F89C0200BF2E4B8E2274
:1007700006A10CA006F094F92CA006F091F900BF98
:1007800010BD000000180240B07800082E2E5C4812
:10079000415244574152455C4C45445C6C65642E63
:1007A00063000000A1BE576F6F64735F444247202F
:1007B00046696C653A2573204C696E653A2564205C
:1007C00046756E6374696F6E3A2573A1BF000000B1
:1007D000454E44206F66204C45445F496E6974283D
:1007E0002920210D0A00000014000020B402434219
:1007F00000004342B97800086C6564206973206C7E
:1008000069676874696E6720210D0A00C378000863
:10081000454E44206F6620424545505F496E6974DD
:10082000282920210D0A0000CD78000842454550B6
:100830002069732072696E6720210D0A0000000094
:1008400030B58BB004460D460121022004F0E9FDCD
:100850000121084604F09CFD022206211E4803F0F7
:10086000BEFA4020099002208DF8280003208DF860
:10087000290000208DF82A0001208DF82B0009A9FD
:10088000154803F021FAA8B2ADF818000020ADF821
:100890001A000794ADF8200006A9104803F0AFFD38
:1008A0007020ADF804000120ADF806000220ADF87C
:1008B000100001A9094803F037FE0821074803F09A
:1008C000C0FF0121054803F005FE0121034803F0A4
:1008D0001FFE0BB030BD00000000024000040040CD
:1008E00010B588B004460121442004F051FD0121D7
:1008F000202004F0A7FD08220621464803F06FFAE5
:1009000008220721434803F06AFAC020069002201B
:100910008DF81C0003208DF81D0000208DF81E00AE
:1009200001208DF81F0006A93A4803F0CDF94020B8
:10093000069001208DF81C0006A9374803F0C4F981
:1009400002940020ADF80C00ADF80E00ADF81000D8
:10095000ADF814000C20ADF8120002A92F4803F0E6
:10096000DEFA01212D4803F062FB40212B4803F001
:1009700046FC012240F22551284803F00EFC472096
:100980008DF8040002208DF8050000208DF8060087
:1009900001208DF8070001A803F0A5F800202049E8
:1009A000086008B010BD10B540F225511B4803F097
:1009B0002FFC60B1194803F069FBC4B219481A4909
:1009C0000978445418480078401C1749087010BD35
:1009D00070B505460E4601201149086000240CE060
:1009E00000BF40210D4803F0FDFB0028F9D0295D30
:1009F0000A4803F047FB601CC4B2B442F0DB00BFFE
:100A00004021064803F0EEFB0028F9D000200449FD
:100A1000086070BD00080240001802400014014048
:100A200098024342C80100201500002010B588B08C
:100A300004460121084604F0ABFC0121102004F01B
:100A400001FD072209215B4803F0C9F907220A21A9
:100A5000584803F0C4F94FF4C060069002208DF8A6
:100A60001C008DF81D0000208DF81E0001208DF85F
:100A70001F0006A94F4803F027F902940020ADF8A3
:100A80000C00ADF80E00ADF81000ADF814000C200D
:100A9000ADF8120002A9484803F041FA0121464886
:100AA00003F0C5FA4021444803F0A9FB012240F2BB
:100AB0002551414803F071FB25208DF804000220E8
:100AC0008DF8050001208DF806008DF8070001A8BB
:100AD00003F009F808B010BD10B540F225513648B2
:100AE00003F096FB002848D0334803F0CFFAC4B295
:100AF00032483349097844543148007848B9AA2C1F
:100B000001D0002002E02E480078401C2C490870DB
:100B100033E02B480078012809D1552C01D0002062
:100B200002E027480078401C2549087025E0244849
:100B30000078022807D12348047021480078401C1F
:100B40001F49087019E01E480078022815DD1C486E
:100B50000078401C1A490870084601781948007846
:100B6000C01C814209D117480178144800F041FEA9
:100B70000020144908701249087010BD70B5054670
:100B80000E4600240CE000BF40210B4803F02AFB76
:100B90000028F9D0295D084803F074FA601CC4B23B
:100BA000B442F0DB00BF4021034803F01BFB0028E8
:100BB000F9D070BD00000240001001404802002042
:100BC00017000020160000207FB505460C460121C5
:100BD000082004F026FC0295ADF804400020ADF892
:100BE0000600ADF80C0001A9464803F008FC0122FC
:100BF0001146444804F0A4F832208DF80000032088
:100C00008DF801008DF8020001208DF80300684680
:100C100002F069FF01213B4803F07AFC7FBD10B56B
:100C20000121384804F0A3F8012866D1364800882D
:100C3000401C3549088035480088401C33490880ED
:100C400033480088401C3249088032480088401CE4
:100C50003049088030480088401C2F4908802F48C0
:100C60000088401C2D4908802D480088401C2C49D4
:100C7000088001202B49087023480088052805DBDF
:100C80000020214908800120274908701F4800885A
:100C90000A2805DB00201D4908800120234908702F
:100CA0001B480088282805DB0020194908800120FE
:100CB0001F49087017480088322802DB00201549B8
:100CC000088015480088642805DB00201249088048
:100CD00001201849087011480088C82802DB00204C
:100CE0000E4908800E480088B0F5FA7F05DB002029
:100CF0000B4908800120104908700121014804F0C7
:100D000047F810BD000C0040200000202200002009
:100D10002400002026000020280000202A000020B7
:100D20002C0000201E0000201B00002019000020C5
:100D30001A0000201F0000201800002070B5054692
:100D40000C4645F2555005F0A1FB284605F0A1FBE5
:100D5000204605F0A1FB05F0A2FB05F0A5FB70BD48
:100D600010B505F09CFB10BD00B585B001218803CE
:100D700004F068FB0121202004F00AFB4FF4E0702E
:100D8000039000208DF8100003208DF81100012041
:100D90008DF8130003A9244802F096FF06210520D0
:100DA00004F0E3F80721052004F0DFF8082105200E
:100DB00004F0DBF84FF4E070009000208DF80400A0
:100DC0000C208DF8050001208DF80600684605F01E
:100DD000CBFD17208DF8080000208DF809000120B8
:100DE0008DF80A008DF80B0002A802F07CFE05B019
:100DF00000BD10B50A2001F0E1FC0C480068012894
:100E000002D1000205F021FE0848001F006810B959
:100E1000802005F01AFE05480838006810B9402007
:100E200005F013FE10BD0000001402402082424273
:100E300000B58DB00121084604F0AAFA012108028C
:100E400004F000FB20200B9003208DF830000120DF
:100E50008DF833000BA9564802F036FF0121080235
:100E600004F045FB00214FF4807004F040FB0120AA
:100E700004F051FC002007900A9009904FF4803054
:100E8000089007A804F012FC002001908DF80800DB
:100E90008DF809000390059001208DF8180001A934
:100EA000444804F0D4FB072301220521414804F003
:100EB00054FC0723012210213E4804F04EFC01217E
:100EC0003C4804F00AFC0DB000BD10B504460723F1
:100ED00001222146374804F040FC364804F099FCD2
:100EE00000BF0221334804F0B5FD0028F9D0314895
:100EF00004F0CBFC10BD2DE9F04107460C4600255F
:100F0000002608E03846FFF7E0FF0544052001F021
:100F100055FC701CC6B2A642F4DBB5FBF4F080B2FF
:100F2000BDE8F08110B52DED088B0A211020FFF7E8
:100F3000E2FF08EE100AB8EE480A10EE100A06F0BA
:100F400041FC41EC1A0B9FED1C0B53EC102B06F0EF
:100F500051FA41EC190B9FED1A0B53EC102B51EC8D
:100F6000190B06F045FB41EC1B0B9FED170B53ECE7
:100F7000102B06F0A1F841EC1A0B9FED150B53EC6A
:100F8000102B05F0F1FF41EC190B9FED130B53EC07
:100F9000102B51EC190B06F02DFA41EC190B41EC1A
:100FA0001A0B06F0E1F904B22046BDEC088B10BD27
:100FB00000000240002001406666666666664A3FA1
:100FC00052B81E85EB51E83F7B14AE47E17A643F8F
:100FD00000000000000039400000000000005940FF
:100FE00000B58BB00121022004F0D2F9012148069E
:100FF00004F017FA4FF44070099002208DF8280091
:1010000000208DF82A0003208DF8290001208DF89A
:101010002B0009A9BC4802F057FE09220821BA4852
:1010200002F0DDFE09221146B74802F0D8FE00208A
:101030008DF81E008DF81F008DF8200001208DF81E
:10104000210000208DF822008DF823008DF81A0071
:101050008DF81B0006208DF81C0005208DF81D0062
:101060000620ADF8180006A9A84804F030FD0020BD
:101070008DF812008DF8130001208DF81400002067
:10108000ADF80800ADF80A00ADF80C00ADF80E00A0
:10109000ADF8100001208DF8150002A804F0A1FDA4
:1010A00001220221994805F09BF814208DF80400D4
:1010B00002208DF805008DF8060001208DF807004C
:1010C00001A802F010FD0BB000BD2DE9F04F85B076
:1010D00006460F4690469946DDE90EBA0024009672
:1010E0002FB1CDF8048004208DF8080002E0002024
:1010F0008DF80800B9F1000F03D002208DF8090027
:1011000002E000208DF809008DF80AA0002406E016
:101110001BF804100DF10B000155601C84B25445FE
:10112000F6DB6946794804F04BFE0546002401E0F1
:10113000601C84B22946754804F0DAFE18B940F6FE
:10114000FF708442F4DB40F6FF70844203DB012031
:1011500005B0BDE8F08F0020FAE710B52DED068B45
:1011600086B001AA0021694804F01FFF40F28111F6
:101170000198884233D19DF80E00062824D19DF8AD
:1011800011109DF8120001EB00219DF8130001EBF6
:1011900000419DF8140001EB0064642104FB01F0A0
:1011A00006F011F99FED5A0B53EC102B06F022F9C3
:1011B0009FED590B53EC102B05F07EFF06F0D4F891
:1011C00000B25749088096E000BF564B862256A1D0
:1011D0005BA005F065FC65A005F062FC8BE0019862
:1011E000B0F5C17F34D19DF80E00062825D19DF8B9
:1011F00011109DF8120001EB00219DF8130001EB86
:1012000000419DF8140001EB00646142642201FB7F
:1012100002F006F0D8F89FED3E0B53EC102B06F0D1
:10122000E9F89FED3D0B53EC102B05F045FF06F060
:101230009BF800B23A4948805DE000BF394B9022EC
:1012400039A13FA005F02CFC50A005F029FC52E08C
:1012500040F283110198884224D19DF80E0006289F
:1012600015D19DF811109DF8120001EB00219DF899
:10127000130001EB00419DF8140001EB00644B48A2
:1012800094FBF0F100FB11404949C88133E000BFF5
:10129000244B9A2224A12AA005F002FC45A005F0C7
:1012A000FFFB28E00198B0F5C27F24D19DF80E0025
:1012B000062815D19DF811109DF8120001EB0021B0
:1012C0009DF8130001EB00419DF8140001EB006450
:1012D000364894FBF0F100FB1140354948820AE0A2
:1012E00000BF104BA42210A115A005F0D9FB39A016
:1012F00005F0D6FB00BF0221044805F074F806B0E3
:10130000BDEC068B10BD00000004024000640040EC
:101310008FC2F5285C8FEA3FF6285C8FC2154540E6
:1013200054000020D77800082E2E5C4841524457C4
:101330004152455C43414E5C63616E2E6300000088
:10134000A1BE576F6F64735F4442472046696C6566
:101350003A2573204C696E653A25642046756E63A4
:1013600074696F6E3A2573A1BF00000052582E5366
:1013700074644964203D20307831383120444C4336
:10138000206572726F7220210D0A000052582E5390
:1013900074644964203D20307831383220444C4315
:1013A000206572726F7220210D0A00001855060028
:1013B0000603002052582E5374644964203D2030A7
:1013C0007831383320444C43206572726F7220218B
:1013D0000D0A000052582E5374644964203D203099
:1013E0007831383420444C43206572726F7220216A
:1013F0000D0A00001CB50121022003F0C9FFC02026
:10140000009001208DF8040000208DF806000320D4
:101410008DF8050001208DF807006946884802F024
:1014200053FC0120874908608749C1F89C021CBD14
:1014300010B58348006820F44040814908600846A0
:10144000006840F48040086001207E49091D086062
:101450007D49C1F89802042001F068F9002079491B
:10146000091D0860042001F061F900207649C1F8E7
:10147000980210BD10B57248006820F440407049D1
:1014800008600846006840F48040086000206D490C
:1014900008606D49C1F89C02042001F047F9012061
:1014A000684908606849C1F89C02042001F03EF9CF
:1014B00010BD10B500246248006820F44040604927
:1014C000086008460068086001205E49091D086040
:1014D00001F02CF901205C49C1F8980201F026F9CD
:1014E00007E0601CC4B2FA2C03DDFFF7C3FF012044
:1014F00010BD54487C3800680028F2D1514908607A
:1015000000BFF5E710B500204E4908604C48006860
:1015100020F440404A4908600846006840F4804092
:10152000086000204849C1F89C02022001F0FEF842
:10153000012044490860022001F0F8F800204249E7
:10154000C1F8980210BD10B500203E4908603C4823
:10155000006820F440403A4908600846006840F4BA
:101560008040086001203849C1F89C02022001F047
:10157000DDF8012033490860022001F0D7F800208F
:101580003149C1F8980210BD70B504462C48006876
:1015900020F440402A4908600846006840F4804032
:1015A0000860002027490860002517E0E009254968
:1015B000091D08606006040E022001F0B7F8012042
:1015C0002149C1F89802022001F0B0F800201D491D
:1015D0000860022001F0AAF8681CC5B2082DE5DBFE
:1015E00070BD70B5054600241548006820F44040E1
:1015F00013490860084600680860002616E00020CD
:1016000010490860022001F091F801200E49C1F84C
:1016100098026006040E0B487C38006808B1601C14
:10162000C4B2012001F082F8701CC6B2082EE6DBBD
:1016300015B9FFF788FF01E0FFF764FF204670BD92
:1016400000040240988240420080404200B587B0CA
:101650000121022003F09CFE0121880303F0E1FE3A
:101660004FF46040059002208DF8180000208DF89E
:101670001A0003208DF8190001208DF81B0005A920
:101680004F4802F021FB05220D214D4802F0A7FB37
:1016900005220E214A4802F0A2FB05220F214848EC
:1016A00002F09DFB0121880303F010FF00214FF49D
:1016B000804003F00BFF0020ADF800004FF4827073
:1016C000ADF802000020ADF804000220ADF80600DD
:1016D0000120ADF808004002ADF80A001820ADF86E
:1016E0000C008020ADF80E000720ADF81000694610
:1016F000344804F037FF0121324805F02DF807B0D7
:1017000000BD10B5044600BF02212E4805F0EEF8DA
:101710000028F9D021462B4805F09FF800BF012191
:10172000284805F0E3F80028F9D0264805F092F89B
:10173000C0B210BD10B5044600BF0221214805F01B
:10174000D5F80028F9D021461E4805F086F810BDCE
:1017500070B505460C4601201B4908602846FFF776
:10176000E9FFE0B2FFF7E6FF2012FFF7E3FF0520F5
:1017700000F0DCFF00201549C1F8A00270BD2DE982
:10178000F041044600250026002701200E4908608C
:1017900044F04000FFF7CEFFFF20FFF7B2FF064600
:1017A000FF20FFF7AEFF074646EA0725052000F0B9
:1017B000BDFF00200549C1F8A0022846BDE8F08120
:1017C0000004024000380040A082414200804142B3
:1017D00070B5024600240023002000BF05E012F887
:1017E000016BF518EBB2651CECB28C42F7DBD8B29A
:1017F00070BD2DE9F0412DED068B04460F46002506
:101800000026B81CC1B22046FFF7E2FFB91C615C9C
:10181000884271D1E078032875D004DC012807D014
:1018200002286BD10EE0042869D0C128F9D1A8E0C4
:101830002079F949087060794870A0798870E0795A
:10184000C870D0E06079217900EB012005B228460C
:1018500005F0B9FD41EC1A0B9FEDF00B53EC102B8A
:1018600005F0C8FD41EC190B9FEDEE0B53EC102B6E
:1018700005F022FC41EC180B05F076FD05B241F6AF
:101880007860854202DBE949088009E0E848854242
:1018900004DC4EF28810E549088001E0E348058049
:1018A000E079A17900EB012006B2304605F08BFD0E
:1018B00041EC1A0B9FEDD90B53EC102B05F09AFD60
:1018C00041EC190B9FEDD70B53EC102B05F0F4FBFB
:1018D00041EC180B05F048FD06B241F678608642EF
:1018E00002DBD24948800DE0D148864208DC4EF246
:1018F0008810CE49488005E076E004E067E01FE00C
:10190000CA4846806FE02079CA49087060794870FB
:10191000A0798870E079C870207A0871607A48717F
:10192000A07A8871E07AC87100BFC34B5122C3A16D
:10193000CAA005F0B5F8D4A005F0B2F800BF52E097
:101940002079DC49087060794870A0798870E07966
:10195000C870207A0871607A4871A07A8871E07A3C
:10196000C871207B0872607B487200BFB24B5E2258
:10197000B2A1BAA005F094F8CFA005F091F800BF8D
:1019800031E06179227901EB022005F01CFDD64A95
:1019900003C2E179A27901EB022005F014FDD24ADD
:1019A000C2E90201617A227A01EB022005F00BFD07
:1019B000CD4AC2E9040100BF9F4B64229FA1A7A0AA
:1019C00005F06EF8C9A005F06BF800BF0BE000BF92
:1019D000994B672299A1A1A005F062F8CDA005F06E
:1019E0005FF800BF00BF0AE000BF934B6D2293A1D8
:1019F0009AA005F055F8D0A005F052F800BFBDEC54
:101A0000068BBDE8F08133B502464FF6FF704AF20F
:101A10000104002110E0555C6840002308E000F05C
:101A2000010515B14010604000E040105D1CEBB2B4
:101A3000082BF4DB4D1CE9B2BDF80450A942EADBE7
:101A40003CBDF0B585B00446002600270025C348FC
:101A50000078002874D000BFC14B7F2277A17FA0FF
:101A600005F01EF8BD480178BEA005F019F800BFCA
:101A7000BA480078801E81B22046FFF7C4FF0546B1
:101A80002E12EFB200BFB64B83226CA173A005F0FB
:101A900007F8A07961792279CDE90305CDE9012123
:101AA000E0780090A37862782178B2A004F0F8FF83
:101AB00000BFAA480078401E205CB04265D1A7480C
:101AC0000078801E205CB8425FD12078012826D1A2
:101AD000607803280AD100BFA14B8B2257A15FA0D9
:101AE00004F0DEFFB1A004F0DBFF59E060780628C7
:101AF0000AD100BF9A4B8F2250A158A004F0D0FF0A
:101B0000B1A004F0CDFF4BE000BF954B92224BA15A
:101B100052A004F0C5FFB3A004F0C2FF40E020785B
:101B2000022827D1607803280BD100BF8C4B982264
:101B300042A14AA004F0B4FFB1A004F0B1FF2FE02D
:101B400031E0607806280AD100BF854B9C223BA17A
:101B500042A004F0A5FFB1A004F0A2FF20E000BF66
:101B60007F4B9F2235A13DA004F09AFF9DA004F079
:101B700097FF15E000BF7A4BA22230A137A004F0F6
:101B80008FFFADA004F08CFF0AE000BF744BA522CC
:101B90002AA132A004F084FFAFA004F081FF00BFAF
:101BA00000206E49087005B0F0BD10B586B0012068
:101BB000AF49087003204870002088700820C87062
:101BC00000200871012048710621A948FFF71BFF7A
:101BD0000446A7498C712012C8710821A448FEF759
:101BE000F7FE00BFA34BC02214A11CA004F058FFB5
:101BF0009F48C0799E4989799D4A52799C4B1B79AF
:101C0000CDE90132CDE903109948C0780090984899
:101C10008378427801782FE136000020F6285C8F27
:101C2000C21545400000000000C054403A000020AA
:101C300088E1FFFF42000020EB7800082E2E5C5365
:101C40004F4654574152455C70726F746F636F6CAE
:101C50005C70726F746F636F6C2E6300A1BE576F00
:101C60006F64735F4442472046696C653A25732070
:101C70004C696E653A25642046756E6374696F6EB3
:101C80003A2573A1BF0000005253323332207072E4
:101C90006F746F636F6C2072656369766564206C26
:101CA000696768745F636F6E74726F6C20210D0AD0
:101CB00000000000C80200205253323332207072FC
:101CC0006F746F636F6C20726563697665642072F0
:101CD0006F626F745F61726D5F636F6E74726F6C51
:101CE00020210D0A00000000D80200205253323398
:101CF000322070726F746F636F6C207265636976E7
:101D00006564205049445F636F6E74726F6C20216C
:101D10000D0A000052533233322070726F746F63B9
:101D20006F6C20636F6E74726F6C20494420455253
:101D3000524F5220210D0A0052533233322070721A
:101D40006F746F636F6C20636865636B73756D2070
:101D50004552524F5220210D0A000000150000206C
:101D6000FA7800086C656E203D20256420210D0A5C
:101D70000000000052585F62756666203D202532E3
:101D80007820253278202532782025327820253297
:101D900078202532782025327820636865636B5F70
:101DA0004352433D253478210D0A00004641434902
:101DB0004C4954593120726563697665642030332B
:101DC0002021200D0A000000464143494C49545946
:101DD0003120726563697665642030362021200DDC
:101DE0000A0000004D4F444255535F46554E435440
:101DF000494F4E5F4944206572726F72200D0A0090
:101E0000464143494C4954593220726563697665AD
:101E1000642030332021200D0A0000004641434950
:101E20004C495459322072656369766564203036B6
:101E30002021200D0A0000004D4F444255535F46BB
:101E40004143494C4954595F416464206572726F43
:101E500072200D0A000000006D6F646275735F638D
:101E600072633136206572726F72200D0A000000B5
:101E7000080200200979000802A004F011FE00BF4A
:101E800006B010BD4D4F444255532054585F627503
:101E90006666203D2025327820253278202532784C
:101EA0002025327820253278202532782025327876
:101EB0002025327820210D0A0000000070B502466E
:101EC00000240023002000BF05E012F8016BF51884
:101ED000EBB2651CECB28C42F7DBD8B270BD10B52A
:101EE0000446AA20FE490870552048700C208870CE
:101EF0008720C8702078087160784871A078887150
:101F0000E078C8712079087260794872A079887287
:101F1000E079C872F348008800120873F14800782D
:101F200048730E21EE48FFF7C9FFED4988730F2172
:101F3000EB48FEF723FEEB480088401CE949088087
:101F400010BD10B50446AA20E54908705520487018
:101F5000172088708620C8702088001208712078A9
:101F60004871608800128871A078C871A08800123A
:101F7000087220794872E08800128872A079C872CD
:101F8000207A08736089000A4873A07A8873A08950
:101F90000012C873207B0874E08900124874A07B8B
:101FA0008874208A0012C874207C0875608A001228
:101FB0004875A07C8875CB4800880012C875C94850
:101FC000007808761921C648FFF778FFC44948769B
:101FD0001A21C348FEF7D2FDC2480088401CC149FF
:101FE000088010BD10B50446AA20BD4908705520D0
:101FF00048700C2088708520C8702078087160783F
:102000004871A0788871A088000AC8712079087288
:10201000A0794872E07988720020C872B1480088BF
:1020200000120873AF48007848730E21AC48FFF7E0
:1020300045FFAB4988730F21A948FEF79FFDA948CA
:102040000088401CA749088010BD10B50446AA208E
:10205000A3490870552048700C2088708420C870EF
:102060002078087160784871A0788871E078C8712C
:102070002079087260794872A0798872E079C87214
:1020800098480088001208739648007848730E211B
:102090009348FFF713FF924988730F219048FEF78A
:1020A0006DFD90480088401C8E49088010BD10B519
:1020B0000446AA208A49087055204870102088706C
:1020C0008320C8702088000A0871207848716088D1
:1020D000000A8871A078C871A088000A0872207967
:1020E0004872E088000A8872A079C8722089000AC4
:1020F0000873207A48736089000A8873A07AC873CD
:1021000078480088001208747648007848741221D4
:102110007348FFF7D3FE7249887413217048FEF7A5
:102120002DFD70480088401C6E49088010BD10B518
:102130000446AA206A490870552048700C2088700F
:102140008220C8702088000A087120784871608851
:10215000000A8871A078C871A088000A08722079E6
:102160004872E088000A8872A079C8725D480088C9
:10217000001208735B48007848730E215848FFF737
:102180009DFE574988730F215548FEF7F7FC5548C7
:102190000088401C5349088010BD10B50446AA2091
:1021A0004F490870552048700C2088708120C870F5
:1021B00020780871608800124871A07888712079B1
:1021C000C87160790872A0794872E0798872207AC3
:1021D000C872444800880012087342480078487367
:1021E0000E213F48FFF76AFE3D4988730F213C48A6
:1021F000FEF7C4FC3B480088401C3A49088010BDEB
:1022000010B539480078401C3749087037480078C5
:10221000401C3649087034480078282805DB002027
:102220003149087001203249087030480078282868
:1022300005DB00202D49087001202D4948702D48EC
:102240000078282805DB00202A4908700120284949
:10225000887029480078282805DB00202649087066
:1022600001202349C87025480078282805DB002074
:102270002249087001201E49087121480078282849
:1022800005DB00201E4908700120194948711D48CE
:102290000078282805DB00201A490870012014491D
:1022A00088711348007828B1002011490870164839
:1022B000FFF773FF0E48407828B100200C494870A2
:1022C0001248FFF734FF0A48807828B100200849F7
:1022D00088700F48FFF7EBFE0548C07800B319E09F
:1022E00088020020520000207400002075000020A9
:1022F0004A000020760000207700002078000020AF
:10230000790000207A000020F00200205400002014
:10231000FA02002000201049C8701048FFF795FE0F
:102320000D48007928B100200B4908710C48FFF7CF
:1023300059FE0948407928B10020074948710948E9
:10234000FFF7FFFD0448807928B100200249887119
:102350000548FFF7C4FD10BD4A0000205C000020C6
:1023600064000020060300206C0000207CB50446B9
:1023700001204449087008464470022000231A4690
:10238000CDE9001019461846FEF79FFE054628467F
:102390007CBD1CB50121102002F0FAFF4FF48040F3
:1023A000009001208DF8040000208DF80600032025
:1023B0008DF8050002208DF807006946324801F0CB
:1023C00083FC01203149086040F2DC5000F0F6F94E
:1023D0000120FFF7CBFF0220FFF7C8FF4FF4FA7090
:1023E00000F0ECF91CBD7CB505460C46FF202549E4
:1023F00008700020487003208870CC70200A087193
:10240000200C4871200E88710720CDE9001005F5D9
:10241000007000231A461946FEF757FE064630465E
:102420007CBD70B5012401251948B0F900100120C8
:10243000FFF7D9FF04461648B0F9020041420220D6
:10244000FFF7D1FF054670BD7CB505460C46FF2061
:102450000C4908700020487001208870CC70200A58
:102460000871200C4871200E88710720CDE90010FA
:1024700005F5007000231A461946FEF726FE0646AB
:1024800030467CBD2E00002000100240B8024242BF
:102490003A0000207CB504462B2092490870402069
:1024A0004870602088700020C870062008710020E5
:1024B00048718871C8710820CDE9001004F5C0602A
:1024C00000231A461946FEF700FE05461E2000F0BE
:1024D00075F90F20834908710820CDE9001004F533
:1024E000C06000231A461946FEF7EFFD05461E2080
:1024F00000F064F92F207B490870602048708870D4
:102500000020C870012008710820CDE9001004F5F2
:10251000C06000231A461946FEF7D7FD0546284637
:102520007CBD1CB50121102002F032FF4FF4804029
:10253000009001208DF8040000208DF80600032093
:102540008DF8050002208DF807006946664801F005
:10255000BBFB01206549086040F2DC5000F02EF919
:102560000320FFF797FF0420FFF794FF4FF4FA7062
:1025700000F024F91CBD7CB505460C46FF205949E6
:1025800008700020487003208870CC70200A087101
:10259000200C4871200E88710720CDE9001005F548
:1025A000007000231A461946FEF78FFD0646304696
:1025B0007CBD70B5012501260024E0204C49C8717E
:1025C00048720846C07900F0800080281DD1084676
:1025D000C07900F03F0494B10846C07900F0400093
:1025E000402805D143490320FFF7C5FF054611E008
:1025F0004FF4FA610320FFF7BEFF05460AE0002111
:102600000320FFF7B8FF054604E000210320FFF791
:10261000B2FF05463648407A00F0800080281DD180
:102620003348407A00F03F0494B13148407A00F0DA
:102630004000402806D14FF4FA610420FFF79BFFC9
:10264000064610E02B490420FFF795FF06460AE0F6
:1026500000210420FFF78FFF064604E0002104203C
:10266000FFF789FF064670BD7CB505460C46232062
:102670001C4908707A204870602088700020C8705B
:102680000C71200A4871200C8871200EC871082036
:10269000CDE9001005F5C06000231A461946FEF783
:1026A00014FD06460A2000F089F82B200D49087019
:1026B00040204870602088700020C8707F2008711A
:1026C000002048718871C8710820CDE9001005F517
:1026D000C06000231A461946FEF7F7FC064630464E
:1026E0007CBD00002E00002000100240B8024242D3
:1026F000C802002030F8FFFF10B504466FF0040058
:1027000001F03EFAE11704EB5171C1F3C701394AF8
:1027100011701046007800EB4001C1EBC0104FF67D
:10272000FF7101EAC0003449088010BD0146314AFA
:1027300012784A434FF0E0235A6100229A611A4608
:10274000126942F001021A6100BF4FF0E0221069E5
:1027500000F001021AB100F48032002AF5D04FF0E7
:10276000E022126922F001024FF0E0231A610022F8
:102770009A6170470146204A12884A434FF0E0238D
:102780005A6100229A611A46126942F001021A61E6
:1027900000BF4FF0E022106900F001021AB100F40E
:1027A0008032002AF5D04FF0E022126922F00102B7
:1027B0004FF0E0231A6100229A61704770B5044619
:1027C0004FF4077094FBF0F0C6B24FF4077094FB1F
:1027D000F0F100FB114085B205E04FF40770FFF700
:1027E000C9FF701EC6B2002EF7D115B12846FFF7FB
:1027F000C1FF70BD7C0000207E000020014600BFAC
:10280000704700BF594A128802F04002002AF9D0EE
:10281000C2B2564B1B1D1A80704710B588B00446D3
:102820000121022002F0B4FD0121880402F0F9FD2B
:1028300007220A214E4801F0D2FA07220B214C4808
:1028400001F0CDFA4FF44060069002208DF81C0094
:1028500003208DF81D0000208DF81E0001208DF84A
:102860001F0006A9424801F02FFA02940020ADF89B
:102870000C00ADF80E00ADF81000ADF814000C20FF
:10288000ADF8120002A9394801F049FB012137488F
:1028900001F0CDFB4021354801F0B1FC012240F2AE
:1028A0002551324801F079FC27208DF804000320DF
:1028B0008DF8050002208DF8060001208DF8070034
:1028C00001A801F010F908B010BD10B540F2255173
:1028D000264801F09DFC58B3244801F0D7FBC4B250
:1028E00024480078002018BB22480078002048B116
:1028F0000A2C02D01F4908701AE01E4800781D49B2
:10290000087015E00D2C04D11A4800781949087098
:102910000EE01848007818490C5416480078401CFE
:102920001449087008460078FF2801DD002008706F
:1029300010BD70B505460E4600240CE000BF4021D6
:102940000A4801F04FFC0028F9D0295D074801F042
:1029500099FB601CC4B2B442F0DB00BF40210348C5
:1029600001F040FC0028F9D070BD00000048004094
:1029700000040240800000201A03002010B58CB033
:1029800004461E230BAA03A9204600F0ABFE0090CC
:10299000009810B101200CB010BD9DF82C0004442B
:1029A00000200B900EE040489DF82C2050F822109B
:1029B00003A800F0FFFD00B908E09DF82C00401CC2
:1029C000C0B20B909DF82C000728ECD300BF9DF8F7
:1029D0002C00072863D2DFE800F004053C5E656444
:1029E000630000BF31A004F05BF831A004F058F898
:1029F0003FA004F055F84EA004F052F85CA004F09B
:102A00004FF86BA004F04CF879A004F049F886A0C8
:102A100004F046F88BA004F043F890A004F040F8CE
:102A200094A004F03DF899A004F03AF89EA004F0B8
:102A300037F8A4A004F034F8B0A004F031F8BDA039
:102A400004F02EF8C8A004F02BF8D4A004F028F865
:102A50009AE216A004F024F8E0A004F021F8002087
:102A60000B900EE0ED4800689DF82C2000EBC200B2
:102A70004168EBA004F014F89DF82C00401CC0B293
:102A80000B90E648007D9DF82C108842EADC07A0F8
:102A900004F006F878E205A004F002F8C4E171E25F
:102AA00045E219E2ECE10000880000200D0A000078
:102AB0002D2D2D2D2D2D2D2D2D2D2D2D2D2D2D2D46
:102AC0002D2D2D2D2D2D2D2D55534D41525420564C
:102AD000332E312D2D2D2D2D2D2D2D2D2D2D2D2D1B
:102AE0002D2D2D2D2D2D2D2D2D2D2D200D0A0000C0
:102AF0002020202055534D415254CAC7D3C9414CC0
:102B000049454E54454BBFAAB7A2B5C4D2BBB8F68F
:102B1000C1E9C7C9B5C4B4AEBFDAB5F7CAD4BBA55D
:102B2000BDBBD7E9BCFE2CCDA8B9FD200D0A000025
:102B3000CBFC2CC4E3BFC9D2D4CDA8B9FDB4AEBF81
:102B4000DAD6FACAD6B5F7D3C3B3CCD0F2C0EFC346
:102B5000E6B5C4C8CEBACEBAAFCAFD2CB2A2D6B4BE
:102B6000D0D02ED2F2B4CB2CC4E3BFC90D0A0000E2
:102B7000D2D4CBE6D2E2B8FCB8C4BAAFCAFDB5C471
:102B8000CAE4C8EBB2CECAFD28D6A7B3D6CAFDD7D1
:102B9000D62831302F3136BDF8D6C629A1A2D7D6D6
:102BA000B7FBB4AEA1A2BAAFCAFDC8EB0D0A0000D4
:102BB000BFDAB5D8D6B7B5C8D7F7CEAAB2CECAFD58
:102BC000292CB5A5B8F6BAAFCAFDD7EEB6E0D6A7A0
:102BD000B3D63130B8F6CAE4C8EBB2CECAFD2CB2D7
:102BE000A2D6A7B3D6BAAFCAFDB7B5200D0A00006A
:102BF000BBD8D6B5CFD4CABE2ED0C2D4F6B2CECAB8
:102C0000FDCFD4CABEBDF8D6C6C9E8D6C3B9A6C4DE
:102C1000DC2CD0C2D4F6BDF8D6C6D7AABBBBB9A6A9
:102C2000C4DC2E0D0A000000BCBCCAF5D6A7B3D682
:102C30003A7777772E6F70656E6564762E636F6D69
:102C40000D0A000055534D415254D3D037B8F6CF3A
:102C5000B5CDB3C3FCC1EE3A0D0A00003F3A2020C7
:102C600020202020BBF1C8A1B0EFD6FAD0C5CFA25A
:102C70000D0A000068656C703A202020BBF1C8A1E5
:102C8000B0EFD6FAD0C5CFA20D0A00006C697374FC
:102C90003A202020BFC9D3C3B5C4BAAFCAFDC1D042
:102CA000B1ED0D0A0A00000069643A2020202020BE
:102CB000BFC9D3C3BAAFCAFDB5C44944C1D0B1ED91
:102CC0000D0A0A006865783A20202020B2CECAFD9D
:102CD0003136BDF8D6C6CFD4CABE2CBAF3B8FABFC7
:102CE000D5B8F12BCAFDD7D6BCB4D6B4D0D0BDF878
:102CF000D6C6D7AABBBB0D0A0A0000006465633ABA
:102D000020202020B2CECAFD3130BDF8D6C6CFD4A7
:102D1000CABE2CBAF3B8FABFD5B8F12BCAFDD7D6C4
:102D2000BCB4D6B4D0D0BDF8D6C6D7AABBBB0D0AAA
:102D30000A00000072756E74696D653A312CBFAA85
:102D4000C6F4BAAFCAFDD4CBD0D0BCC6CAB13B30F2
:102D50002CB9D8B1D5BAAFCAFDD4CBD0D0BCC6CA75
:102D6000B13B0D0A0A000000C7EBB0B4D5D5B3CC17
:102D7000D0F2B1E0D0B4B8F1CABDCAE4C8EBBAAF82
:102D8000CAFDC3FBBCB0B2CECAFDB2A2D2D4BBD87E
:102D9000B3B5BCFCBDE1CAF82E0D0A002D2D2D2DBA
:102DA0002D2D2D2D2D2D2D2D2D2D2D2D2D2D2D2D53
:102DB0002D2D2D2D2D2D414C49454E54454B2D2D5E
:102DC0002D2D2D2D2D2D2D2D2D2D2D2D2D2D2D2D33
:102DD0002D2D2D2D2D2D2D200D0A00002D2D2D2DCD
:102DE0002D2D2D2D2D2D2D2D2D2D2D2D2D2D2D2D13
:102DF0002D2D2D2D2DBAAFCAFDC7E5B5A52D2D2D35
:102E00002D2D2D2D2D2D2D2D2D2D2D2D2D2D2D2DF2
:102E10002D2D2D2D2D2D2D2D200D0A00C40000202F
:102E200025730D0A00000000EFA003F039FE00201A
:102E30000B901AE0FC4909689DF82C2001EBC201B7
:102E400001AB02AA486803A900F072FCF6480068CA
:102E50009DF82C1050F8312003A9F4A003F020FEB7
:102E60009DF82C00401CC0B20B90EF48007D9DF8EF
:102E70002C108842DEDCAFF2CC3003F011FE83E090
:102E8000AFF2D83003F00CFE0BAA03A9204600F0E5
:102E90002BFD9DF82C00C8B9694603A800F0BDFBC6
:102EA0000B909DF82C0020B9E5A0009903F0F8FDE7
:102EB0000EE09DF82C00042801D002206BE5E3A071
:102EC00003F0EEFD0120D849C87501E0022062E55B
:102ED000DDA003F0E5FD57E0DBA003F0E1FD0BAA68
:102EE00003A9204600F000FD9DF82C00C8B96946F2
:102EF00003A800F092FB0B909DF82C0020B9D8A0FD
:102F0000009903F0CDFD0EE09DF82C00042801D0BF
:102F1000022040E5D5A003F0C3FD0020C249C875DA
:102F200001E0022037E5C8A003F0BAFD2CE0C6A0FE
:102F300003F0B6FD0BAA03A9204600F0D5FC9DF8CE
:102F40002C00C8B9694603A800F067FB0B909DF8F8
:102F50002C0078B9B449009881F8EC00084690F844
:102F6000EC0018B1C6A003F09BFD07E0CBA003F076
:102F700097FD03E002200EE502200CE5B2A003F06D
:102F80008FFD01E0012006E500BF002003E510B53C
:102F90000121C94801F0E8FE4FF6FF71C64801F073
:102FA00079FA0021C44801F073FA00209E49C1F863
:102FB000F00010BD10B50121BF4801F0CCFE012882
:102FC00008D19948D0F8F0004FF6FF7108449649AF
:102FD000C1F8F000B84801F05FFA9349D1F8F01059
:102FE00008449149C1F8F0000846D0F8F00010BD3F
:102FF00010B50121B04801F0BAFE01280AD18A4972
:10300000086980470021AC4801F042FA6421AA48CF
:1030100001F040FA0121A84801F0BAFE10BD7FB5C9
:1030200004460D460121042002F0FBF9ADF80050E2
:103030000020ADF802000194ADF8080069469E48F2
:1030400001F0DDF9012211469B4801F079FE0121D2
:10305000994801F05DFA1E208DF80C0001208DF8D2
:103060000D0003208DF80E0001208DF80F0003A83D
:1030700000F039FD7FBD10B5044604EBC40000EB41
:1030800004100122C2EB800081B24FF47A70FFF786
:10309000C6FF01206449C87510BD30B595B005461E
:1030A00013AB12AA09A9284600F042FB044614B14A
:1030B000204615B030BD0020149026E05A4909681A
:1030C0009DF8502001EBC20113AB11AA486801A979
:1030D00000F02EFB04460CB12046EAE709A901A83E
:1030E00000F068FA60B99DF844009DF848108842E5
:1030F00001DD0220DDE79DF850004B4988750AE0AC
:103100009DF85000401CC0B214904748007D9DF8C7
:1031100050108842D2DC00BF4348007D9DF850101B
:10312000884201D10420C4E714A9284600F04DFCD0
:1031300004460CB12046BCE79DF850003A4948755A
:103140000020B6E72DE9F0419AB03748847D007D34
:10315000A04202DC1AB0BDE8F0813349096801EBF6
:10316000C40106AB07AA486808A900F0E1FA08A95B
:1031700052A003F095FC0026BAE02B48008B0121F9
:10318000B1400840D8B122214EA003F089FC30465E
:1031900000F00EFC24492431471839464AA003F0B8
:1031A0007FFC222147A003F07BFC304600F000FCAE
:1031B0001D492431084410A941F826008EE030460C
:1031C00000F0F6FB18492431085810A941F82600F0
:1031D0001548C07D30B910A850F826103BA003F068
:1031E0005FFC7BE074E000002D2D2D2D2D2D2D2D6D
:1031F0002D2D2D2D2D2D2D2D2D2D2D2D2D2D2D2DFF
:103200002DBAAFCAFD204944202D2D2D2D2D2D2D59
:103210002D2D2D2D2D2D2D2D2D2D2D2D2D2D2D2DDE
:103220002D2D2D2D200D0A00C400002025732069AE
:10323000642069733A0D0A3058253038580D0A0059
:103240004845583A305825580D0A00003136BDF827
:10325000D6C6B2CECAFDCFD4CABE210D0A00000028
:103260004445433A256C750D0A0000003130BDF825
:10327000D6C6B2CECAFDCFD4CABE210D0A00000008
:1032800052756E2054696D652043616C63756C6185
:1032900074696F6E204F4E0D0A00000052756E204B
:1032A00054696D652043616C63756C6174696F6E00
:1032B000204F46460D0A0000000800400D0A257305
:1032C000280000002563000025730000256C7500B0
:1032D00010A850F8261095A003F0E2FB9DF81C0002
:1032E000401EB04202D093A003F0DAFB701CC6B2BD
:1032F0009DF81C008642FFF640AF8FA003F0D0FB84
:10330000FFF745FE8D48407D0B280DD2DFE800F029
:10331000060D151E27323F4E5F72870087490968E8
:1033200051F834008047054690E0844A126852F80C
:10333000341010988847054688E0804B1B6853F886
:103340003420DDE91001904705467FE07B4F3F6860
:1033500057F8343010A807C89847054676E0DFF8DC
:10336000DCC1DCF800C05CF8347010A80FC8B847A6
:1033700005466BE01498DFF8C4C10090DCF800C08B
:103380005CF8347010A80FC8B84705465EE0DDE968
:103390001401DFF8A8C1CDE90001DCF800C05CF839
:1033A000347010A80FC8B84705464FE0DDE9141285
:1033B0001698DFF888C1CDE900120290DCF800C051
:1033C0005CF8347010A80FC8B84705463EE0DDE948
:1033D0001423DDE91610DFF864C1CDE90023CDE93F
:1033E0000210DCF800C05CF8347010A80FC8B847B1
:1033F00005462BE0DDE91523DDE91710CDE90123B2
:10340000CDE903101498DFF834C10090DCF800C057
:103410005CF8347010A80FC8B847054616E0DDE91F
:103420001623DDE91810CDE90223CDE90410DDE90A
:103430001401DFF808C1CDE90001DCF800C05CF838
:10344000347010A80FC8B847054600BF00BFFFF78B
:10345000B1FD9DF8180001280CD13848C07D20B975
:10346000294637A003F01CFB07E0294636A003F0ED
:1034700017FB02E033A003F013FB304890F8EC0098
:1034800088B12E48D0F8F0000A21B0FBF1F201FB20
:1034900012072A48D0F8F000B0FBF1F83A4641464E
:1034A0002CA003F0FDFA00BF54E670B53148007857
:1034B0000020002833D02F48057800202E49485599
:1034C0001E4881682C48884704461CB91B49C868B7
:1034D000804721E02848FFF751FA0546012D00D02A
:1034E0002C46CCB1012C06D0022C08D0032C0AD0DB
:1034F000042C10D10BE021A003F0D2FA0BE022A0A3
:1035000003F0CEFA07E023A003F0CAFA03E024A0F8
:1035100003F0C6FA00BF00BF00201649087070BD56
:103520000146086870470160704700003058255810
:10353000000000002C00000029000000C400002052
:103540003D256C753B0D0A003D305825583B0D0A52
:103550000000000046756E6374696F6E2052756ED0
:103560002054696D653A25642E2531646D730D0A0A
:1035700000000000800000201A030020BAAFCAFD3E
:10358000B4EDCEF3210D0A00B2CECAFDB4EDCEF3F8
:10359000210D0A00B2CECAFDCCABB6E0210D0A0067
:1035A000CEB4D5D2B5BDC6A5C5E4B5C4BAAFCAFDC3
:1035B000210D0A0002460AE010780B78984201D0EB
:1035C00001207047107800B902E0521C491CF3E753
:1035D00000BF0020F5E706E002780A70027802B921
:1035E00002E0401C491CF7E700BF7047014600207D
:1035F00005E00A7802B903E0421CD0B2491CF8E7A2
:1036000000BF704710B50246012000E050430B1E7A
:10361000A1F10104E1B2F9D110BD2DE9F043074653
:103620000E4600254FF00A083C46002030601FE09F
:103630002078392802DC207830280ADA20784628D9
:1036400002DC2078412804DA2078582809D1012D9D
:1036500007D12078412801DB4FF01008681CC5B263
:1036600005E0207800B904E00120BDE8F083641C87
:10367000DEE700BF3C46B8F1100F0FD1032D01DA91
:103680000220F2E72078302806D16078582803D14C
:10369000A41CA81EC5B204E00320E6E70DB904206F
:1036A000E3E71BE00DB1681EC5B22078392806DCBF
:1036B0002078302803DB2078A0F1300902E0207860
:1036C000A0F1370929464046FFF79CFF316809FB06
:1036D00000103060641C207800B900E0E2E700BF11
:1036E0000020C2E710B50446002010700BE02078DF
:1036F0000870641C491C1078401C107010789842A7
:1037000001DB012010BD2078202802D0207800287D
:10371000EDD10020087000BFF4E70146491C00E02D
:10372000491C0878202801D10029F9D10878704770
:103730002DE9FF4F85B08046894600270020049080
:103740000390012002904FF0000B002544461DE03D
:103750002078202816D005F07F00052812DA0DB950
:1037600045F0800505F07F00042803D120782A2841
:1037700000D00EE0207805F07F010DF80100681CF4
:10378000C5B202E0852D00D103E0641C207800283A
:10379000DED100BF8DB1002005F07F010DF80100E2
:1037A000CBA16846FFF706FF18B900210898017001
:1037B00002E001210898017000254FF0000A4446FC
:1037C00014E0641C0AF1010000F0FF0A20782028B0
:1037D00002D020782A2809D12046FFF79EFF06460E
:1037E000282E03D02A2E01D0CDF810A0207828282A
:1037F00002D020780028E4D14446049810B10498FF
:10380000401C04444FF0000A002654E0207810B910
:103810004FF0010A50E02078282803D116B9781C0F
:10382000C7B213E02078292808D13EB917B1781E15
:10383000C7B201E04FF0010A47B93DE020782228E5
:1038400004D10EB9012000E00020064647B92078D7
:1038500020282FD0207889F8000009F1010929E0FB
:1038600020782C2804D101200290681CC5B214E0F5
:103870002078202811D0207828280ED04DB9BBF10F
:10388000050F06DA20780DF80B000BF1010000F0AF
:10389000FF0B0298401CC0B20290012F0AD102987F
:1038A000022807D10298401CC0B202900398401C25
:1038B000C0B20390641CA9E700BF0398012809D196
:1038C00000200DF80B0082A16846FFF773FE08B9CF
:1038D00000200390079903980870002089F80000E1
:1038E000504609B0BDE8F08FF0B5034615460020FC
:1038F00000220026002455E01F782C2F01D104B9A6
:1039000001221F78292F01D01F780FB904B94AE08E
:10391000002E34D11F78302F02DB1F78392F11DDB4
:103920001F78612F02DB1F78662F0BDD1F78412F78
:1039300002DB1F78462F05DD1F78582F02D01F7835
:10394000782F0CD102B12EE01F78612F03DB1F7896
:10395000203F0F7001E01F780F70491C1FE01F7897
:10396000222F04D102B11EE00126012417E01F78A6
:10397000202F14D01F782C2F11D0FF2613E01F7892
:10398000222F00D1002402B10DE044B11F785C2F3A
:1039900002D15B1C471CF8B21F780F70491C471CF2
:1039A000F8B25B1CA8E700BF00270F702E70F0BDB7
:1039B00002460020002105E0474B5B5C0344D8B27F
:1039C0004B1CD9B29142F7DB70472DE9F043B5B0FB
:1039D00005460F460024002604E000213E4881559C
:1039E000701CC6B20A2EF8DB06E06D1C287818B9E8
:1039F000012035B0BDE8F08328782828F5D16D1C6A
:103A000061E034AA69462846FFF76EFF0646354452
:103A10009DF8D00020B1012827D0FF284CD149E0E3
:103A20009DF8000000B333A96846FFF7F6FD06468F
:103A30000EB10220DDE72046FFF7BAFF26490A3122
:103A4000339A0A50A1F12400008B0121A140884340
:103A500021491A39088304211F480155601CC4B24A
:103A60000A2C01DD0320C4E726E06846FFF7BEFD0F
:103A7000401C00F0FF082046FFF79AFF16490A3164
:103A800000EB010949466846FFF7A5FD12481A38C0
:103A9000018B0120A040014388B20F491A390883E5
:103AA0000D4800F80480601CC4B20A2C01DD03201C
:103AB0009FE701E002209CE700BF2878292801D079
:103AC000287800B900E09CE700BF3C70002090E738
:103AD000766F696400000000DE0000203249014377
:103AE000324A1160704770B5002100230F22C4785C
:103AF0001CB32E4C246804F4E064C4F5E064C4F301
:103B00000721C1F10404E3B20A4144789C40E1B2C8
:103B10008478144021430C07210E254C057861550B
:103B2000047804F01F050124AC4005786D11AD0048
:103B300005F1E025C5F8004109E0047804F01F050F
:103B40000124AC401B4D0678761145F8264070BD27
:103B5000194A0A400243154B1B1F1A60704739B1BE
:103B6000124A121D12680243104B1B1D1A6006E018
:103B70000E4A121D126882430C4B1B1D1A607047BF
:103B8000042808D14FF0E021096941F004014FF009
:103B9000E022116107E04FF0E021096921F0040102
:103BA0004FF0E022116170470000FA050CED00E0D3
:103BB00000E400E080E100E080FFFF1F10B5044654
:103BC0009848844208D10121084601F04CFC0021AC
:103BD000012001F048FC76E09348844208D101219D
:103BE000022001F040FC0021022001F03CFC6AE0D0
:103BF0008E48844208D10121042001F034FC0021C8
:103C0000042001F030FC5EE08948844208D10121A3
:103C1000082001F028FC0021082001F024FC52E0DB
:103C20008448844208D10121102001F01CFC0021AD
:103C3000102001F018FC46E07F48844208D10121A1
:103C4000202001F010FC0021202001F00CFC3AE0C3
:103C50007A48844208D10121402001F004FC00216F
:103C6000402001F000FC2EE07548844208D101217B
:103C7000802001F0F8FB0021802001F0F4FB22E01D
:103C80007048844208D10121801501F0ECFB00212D
:103C9000A01501F0E8FB16E06B48844208D1012131
:103CA000401501F0E0FB0021601501F0DCFB0AE0AB
:103CB0006648844207D10121001501F0D4FB0021A0
:103CC000201501F0D0FB10BDF0B50A4600210023FD
:103CD000002400BF3DE0012505FA01F3156805EA5F
:103CE00003049C4234D105684F000326BE40B5430F
:103CF000056015794E00B5400668354305601579B5
:103D0000012D02D01579022D16D185684F000326AA
:103D1000BE40B543856055794E00B5408668354351
:103D20008560456801268E40B543456045689679B3
:103D30008E40B6B235434560C5684F000326BE408D
:103D4000B543C560D5794E00B540C6683543C560FA
:103D5000491C1029BFD3F0BD4FF6FF71016000214F
:103D6000017141718171C171704708B54FF48032A2
:103D70000092009A0A430092009AC261C161009ABF
:103D8000C261C2690092C269009208BD0246002069
:103D900013690B400BB1012000E000207047014681
:103DA000086980B270470246002053690B400BB18E
:103DB000012000E0002070470146486980B270474A
:103DC00001837047418370470AB1018300E041835A
:103DD00070474161704742694A4042617047F0B59F
:103DE000002300244D07ED0E02FA05F3CE1000F17A
:103DF000200555F826504E07F70E0F26BE40B54356
:103E0000CF1000F1200646F82750CE1000F1200513
:103E100055F8265045EA0304CE1000F1200545F878
:103E20002640F0BD000002400004024000080240AD
:103E3000000C024000100240001402400018024032
:103E4000001C0240002002400024024000280240E2
:103E500010B50446FA48844208D10121102001F02F
:103E600046FB0021102001F042FB57E0F548844258
:103E700009D10121480401F029FB00214FF4003051
:103E800001F024FB4AE0F048844209D10121880472
:103E900001F01CFB00214FF4802001F017FB3DE0F6
:103EA000EA48844209D10121C80401F00FFB002136
:103EB0004FF4002001F00AFB30E0E548844209D1CC
:103EC0000121080501F002FB00214FF4801001F0F0
:103ED000FDFA23E0DF48844208D10121202001F0CF
:103EE00006FB0021202001F002FB17E0DA488442A3
:103EF00009D10121880701F0E9FA00214FF0804043
:103F000001F0E4FA0AE0D548844207D101214005D6
:103F100001F0DCFA0021600501F0D8FA10BD2DE9AE
:103F2000FF4705460E460024A14600BFA046B089C3
:103F300000B100BF2C8A24F44054F08804432C8242
:103F4000AC8941F20C608443B0883189084371899F
:103F500008430443AC81AC8A24F44074B089044320
:103F6000AC82684601F043F9B548854202D0B948B1
:103F7000854202D1DDF80C9001E0DDF80890A889B7
:103F800000F4004040B109EBC90000EB09103168B2
:103F90004900B0FBF1F707E009EBC90000EB09109D
:103FA00031688900B0FBF1F76420B7FBF0F0040141
:103FB0002009642101FB1078A88900F4004040B179
:103FC000322000EBC800B0FBF1F000F00700044322
:103FD00008E0322000EB08106421B0FBF1F000F0A3
:103FE0000F0004432C81BDE8FF874FF41651016098
:103FF00000218180C18001810C21418100218181CA
:10400000704710B502460020108A20F470600B88BB
:104010004C8823438C882343CC8823431843108245
:1040200010BD0021018041808180C180704721B195
:10403000828942F40052828104E082894DF6FF7346
:104040001A4082817047028B02F47F420283028B06
:104050000A430283704721B1828942F4004282817F
:1040600003E08289C2F30E028281704721B1828A05
:1040700042F40062828204E0828A4FF2FF731A40A7
:1040800082827047C1F308028280704701468888A7
:10409000C0F308007047028A4FF6F0731A4002829C
:1040A000028A0A430282704721B1828942F00202E9
:1040B000828104E082894FF6FD731A408281704745
:1040C00082894FF2FF731A40828182890A4382817A
:1040D0007047028A4FF6DF731A400282028A0A434F
:1040E0000282704721B1028A42F48042028204E0D7
:1040F000028A4BF6FF731A4002827047818941F0B1
:1041000001018181704721B1828A42F008028282D6
:1041100004E0828A4FF6F7731A4082827047028B5E
:10412000D2B20283028B42EA01220283704721B19C
:10413000828A42F02002828204E0828A4FF6DF7394
:104140001A408282704721B1828A42F01002828234
:1041500004E0828A4FF6EF731A4082827047828AA7
:104160004FF6FB731A408282828A0A43828270472A
:1041700021B1828A42F00202828204E0828A4FF6F2
:10418000FD731A40828270471AB1838A0B4383827F
:1041900002E0838A8B4383827047F0B50346002494
:1041A00000260025002040F66A17B94200D100BF62
:1041B0001846C1F3421401F01F06012707FA06F55D
:1041C000012C01D10C3004E0022C01D1103000E0B0
:1041D00014301AB107682F43076002E00768AF4345
:1041E0000760F0BD02460020B1F5007F00D100BF9E
:1041F00013880B400BB1012000E00020704701F450
:104200000072B2F5007F00D100BFCA430280704740
:1042100070B50246002400230025002040F66A16EF
:10422000B14200D100BFC1F3421501F01F030126C6
:1042300006FA03F3012D13D19689334017E00000ED
:10424000001001400044004000480040004C004085
:10425000005000400014014000780040007C004005
:10426000022D02D1168A334001E0968A33400C12A7
:10427000012606FA04F41688344013B10CB101206B
:1042800000E0002070BD10B50022002340F66A1443
:10429000A14200D100BF0A1201249440A3B2DC4322
:1042A000048010BD10B50446FE48844208D10121A7
:1042B000084601F01CF90021012001F018F99DE0E9
:1042C000B4F1804F08D10121084601F0FFF8002128
:1042D000012001F0FBF891E0F348844208D101216C
:1042E000022001F0F3F80021022001F0EFF885E050
:1042F000EE48844208D10121042001F0E7F80021B2
:10430000042001F0E3F879E0E948844208D1012172
:10431000082001F0DBF80021082001F0D7F86DE05B
:10432000E448844208D10121102001F0CFF8002197
:10433000102001F0CBF861E0DF48844208D1012170
:10434000202001F0C3F80021202001F0BFF855E043
:10435000DA48844208D10121022001F0C8F8002186
:10436000022001F0C4F849E0D548844209D1012176
:10437000080401F0BCF800214FF4803001F0B7F8D8
:104380003CE0D048844209D10121480401F0AFF853
:1043900000214FF4003001F0AAF82FE0CA4884420F
:1043A00009D10121880401F0A2F800214FF48020F6
:1043B00001F09DF822E0C548844208D10121402047
:1043C00001F084F80021402001F080F816E0C04898
:1043D000844208D10121802001F078F8002180205A
:1043E00001F074F80AE0BB48844207D1012180152E
:1043F00001F06CF80021A01501F068F810BD002252
:104400000288A84B98420ED0AC4B98420BD0B0F12A
:10441000804F08D0A44B984205D0A44B984202D0BC
:10442000A34B984204D14FF68F731A404B881A431E
:10443000A04B984207D0A04B984204D04FF6FF43C0
:104440001A400B891A4302804B68C3620B880385AC
:10445000944B984202D0994B984201D18B7A0386B3
:104460000123838270474FF0FF31416000210180BA
:1044700001814180817270470185828270470A46BE
:10448000002101884FF68F73194011430180704756
:1044900041627047C16270470146486A70470146F1
:1044A000088D704721B1028842F00202028004E0C8
:1044B00002884FF6FD731A400280704721B10288CE
:1044C00042F00402028004E002884FF6FB731A40B7
:1044D0000280704721B1028842F08002028004E02D
:1044E00002884FF67F731A400280704702884FF6A9
:1044F000F7731A40028002880A43028070470288DC
:104500004FF6FF431A40028002880A430280704738
:1045100021B1028842F00102028004E002884FF6D5
:10452000FE731A400280704770B5002400220023F9
:10453000058C4FF6FE7635400584028C8388048B0B
:104540004FF68F752C40B51E2C400D882C43751EE0
:104550002A408D892A434D882A43524DA84202D0D1
:10456000564DA84213D14FF6F7752A40CD892A43FC
:104570004FF6FB752A408D882A434FF6FF652B4086
:104580004FF6FF552B400D8A2B434D8A2B438380DA
:1045900004838D684563028470BD70B500240022D9
:1045A0000023058C4FF6EF7635400584028C838816
:1045B000048B48F6FF752C404FF6FF452C400D88C4
:1045C0004FF6FF7606EA05252C434FF6DF752A40A5
:1045D0008D8906EA05152A434D8806EA05152A4302
:1045E000304DA84202D0354DA8421DD14FF67F75FF
:1045F0002A40CD894FF6FF7606EA05152A434FF685
:10460000BF752A408D8806EA05152A434FF6FF3507
:104610002B404FF2FF752B400D8A06EA85052B4390
:104620004D8A06EA85052B43838004838D68856364
:10463000028470BD70B5002400220023058C4FF663
:10464000FF6635400584028C8388848B4FF68F7516
:104650002C404FF6FC752C400D882C434FF6FF552F
:104660002A408D894FF6FF7606EA05252A434D88B4
:1046700006EA05252A430B4DA84202D00F4DA84259
:1046800038D14FF2FF752A40CD894FF6FF7606EA02
:1046900005252A434FF6FF352A408D8806EA052571
:1046A0002A4319E0000001400004004000080040D7
:1046B000000C0040001000400014004000040140C5
:1046C0000040014000440140004801400018004003
:1046D000001C0040002000404EF6FF752B404DF6B8
:1046E000FF752B400D8A06EA05152B434D8A06EA15
:1046F00005152B43838084838D68C563028470BD58
:1047000070B5002200230024058C4EF6FF7635405C
:104710000584038C8488828B48F6FF752A404FF607
:10472000FF452A400D884FF6FF7606EA05252A4305
:104730004DF6FF752B408D8906EA05352B434D88D4
:1047400006EA05352B43FE4DA84202D0FD4DA84296
:1047500008D14BF6FF752C400D8A4FF6FF7606EA1E
:1047600085152C43848082838D680564038470BD25
:10477000002101804180818081608181C18101822D
:104780004182704770B50346002000241846183057
:1047900001258D40ACB21D8CA5431D8409B10829AB
:1047A0000AD100EB610005684FF68F763540056051
:1047B0000568154305600FE00D1FC5F34E0528443D
:1047C000056848F6FF763540056005684FF6FF76C8
:1047D00006EA02263543056070BD41637047816378
:1047E0007047C1637047016470470A460021018B1E
:1047F0004FF68F7319401143018370470A46002119
:10480000018B48F6FF7319404FF6FF7303EA02234A
:104810001943018370470A460021818B4FF68F733D
:1048200019401143818370470A460021818B48F665
:10483000FF7319404FF6FF7303EA02231943818384
:1048400070470A460021018B4FF6F7731940114358
:10485000018370470A460021018B4FF2FF73194014
:104860004FF6FF7303EA02231943018370470A4698
:104870000021818B4FF6F7731940114381837047F4
:104880000A460021818B4FF2FF7319404FF6FF73E8
:1048900003EA02231943818370470A460021018BF2
:1048A0004FF6FB7319401143018370470A460021FC
:1048B000018B4FF6FF3319404FF6FF7303EA0223D3
:1048C0001943018370470A460021818B4FF6FB7321
:1048D00019401143818370470A460021818B4FF6AE
:1048E000FF3319404FF6FF7303EA02231943818314
:1048F00070470A460021018B4FF67F731940114320
:10490000018370470A460021018BC1F30E014FF667
:10491000FF7303EA02231943018370470A4600210B
:10492000818B4FF67F7319401143818370470A468C
:104930000021818BC1F30E014FF6FF7303EA0223BE
:104940001943818370470A460021018C4FF6FD739D
:1049500019401143018470470A460021018C4FF62B
:10496000F77319401143018470470A460021018CF6
:104970004FF6DF7319404FF6FF7303EA0213194332
:10498000018470470A460021018C4FF67F7319405D
:104990004FF6FF7303EA02131943018470470A4676
:1049A0000021018C4FF6FF5319404FF6FF7303EAC5
:1049B00002231943018470470A460021018C4FF2FB
:1049C000FF7319404FF6FF7303EA02231943018472
:1049D00070470A460021018C4DF6FF7319404FF6CF
:1049E000FF7303EA023319430184704730B5002393
:1049F00001248C40A3B2048C9C430484048C02FAEE
:104A000001F5ADB22C43048430BD30B5002304243D
:104A10008C40A3B2048C9C430484048C02FA01F5FC
:104A2000ADB22C43048430BD828B4FF2FF331A4069
:104A30008283828B4FF6FF7303EA01231A4382833A
:104A40007047F0B50C461546002100220026078C61
:104A50004EF6FF7C07EA0C070784818B028C4FF629
:104A6000FF7707EA043640F6FF4739404FF6FF77F5
:104A700007EA052739434FF6FF7707EA033739433B
:104A800045F6FF773A4046F480573A4381830284E3
:104A9000F0BD828B4FF6F3731A408283828B0A43F8
:104AA00082837047F0B50C4615460021002200268F
:104AB000078C4FF6FF6C07EA0C070784818B028C8A
:104AC0004FF6FF7707EA04264FF60C7739404FF68A
:104AD000FF7707EA03172F4339434FF2FF573A4056
:104AE00046F480773A4381830284F0BD028B4FF213
:104AF000FF331A400283028B4FF6FF7303EA012350
:104B00001A4302837047F0B50C4615460021002277
:104B10000026078C4FF6EF7C07EA0C070784018B11
:104B2000028C4FF6FF7707EA041640F6FF4739403C
:104B30004FF6FF7707EA033739434FF6FF7703E075
:104B4000000001400004014007EA052739434FF601
:104B50005F773A4046F010073A4301830284F0BD84
:104B6000028B4FF6F3731A400283028B0A430283CF
:104B70007047F0B50C46154600210022068C4FF612
:104B8000FE773E400684018B028C4FF60C76314056
:104B90007E1C06EA03162E4331434FF6F57632406B
:104BA00044F00106324301830284F0BD70B505462E
:104BB0000C46208850B92389A28861882846FFF7CF
:104BC000D8FFE1882846FFF7CBFF25E0208804289E
:104BD0000AD12389A28861882846FFF794FFE188DB
:104BE0002846FFF783FF17E0208808280AD1238989
:104BF000A28861882846FFF755FFE1882846FFF71D
:104C000048FF09E02389A28861882846FFF719FF39
:104C1000E1882846FFF708FF70BD00210180418030
:104C2000012181800021C180018170472DE9F0417F
:104C300005460C4600260127608808B9022600E0D8
:104C40000026A088012801D1022700E00127208842
:104C5000A0B92389A28861882846FFF78AFFE188E6
:104C60002846FFF77DFF23893A4631462846FFF75D
:104C70004AFFE1882846FFF739FF13E02389A2881D
:104C800061882846FFF73FFFE1882846FFF72EFF9F
:104C900023893A4631462846FFF76BFFE1882846CC
:104CA000FFF75EFFBDE8F0810146486B70470146A3
:104CB000886B70470146C86B70470146086C7047A7
:104CC0000A884B881A438B881A43CB881A430B896E
:104CD0001A434B891A438B891A43A0F84420704722
:104CE0000021018041808180C180018141818181D9
:104CF000704731B1B0F8442042F40042A0F844209B
:104D000005E0B0F84420C2F30E02A0F8442070473A
:104D100021B1828842F00402828004E082884FF64A
:104D2000FB731A408280704721B1828842F00102F1
:104D3000828004E082884FF6FE731A4082807047BA
:104D40001AB183890B43838102E083898B4383817A
:104D500070478182704702460020138A0B400BB1D6
:104D6000012000E000207047CA430282704730B53E
:104D70000246002000230024158A05EA01039589D4
:104D800005EA010413B10CB1012000E0002030BDA0
:104D9000CA430282704741EA0203A0F848307047D4
:104DA0001AB183890B43838102E083898B4383811A
:104DB000704721B1828842F00802828004E0828834
:104DC0004FF6F7731A408280704701894FF6F872E8
:104DD0001140018170470A46002101894FF68F7307
:104DE000194011430181704730B504460D462946EC
:104DF0002046FFF7F0FF208940F00700208130BDFA
:104E00002DE9F04104460D4616461F46602D06D199
:104E10003B46012231462046FFF775FE05E03B4642
:104E2000012231462046FFF7A4FE29462046FFF71F
:104E3000D2FF208940F007002081BDE8F08130B525
:104E40000C4600210189C9B24FF6FF7505EA03251A
:104E5000154325432943018130BD2DE9F041054625
:104E60000E4617469846002443463A4631462846A1
:104E7000FFF7E5FF2C894FF6F870044044F0070473
:104E80004FF68F70044044F070042C81BDE8F0812F
:104E9000F0B504460D4616461F463B4632462946A7
:104EA0002046FFF7CCFF208940F480402081F0BDF0
:104EB00082884FF68F731A40828082880A438280EC
:104EC000704702894FF6F8731A40028102890A433B
:104ED0000281704702894FF67F731A40028102896E
:104EE0000A4302817047F0B50C4615461E46002164
:104EF000002200230189028B038C4FF6F87739409A
:104F000021434FF6FC473A4040F201173A434FF62F
:104F1000DD773B404FF6FF7707EA06172F433B4309
:104F2000018102830384F0BD21B1828842F08002B6
:104F3000828004E082884FF67F731A408280704737
:104F4000A0F850107047000010B50121880300F050
:104F5000CEFA00214FF4804000F0C9FA10BD1C4980
:104F6000086070471B490862704730B500228B0704
:104F70001C0F0F2303FA04F2154B08338C1053F85F
:104F800024309343124C08348D1044F825302346C6
:104F90008C1053F824308C07240F00FA04F42343B8
:104FA0000B4C08348D1044F8253030BD0949DC31F4
:104FB00008607047084908607047002004492031A4
:104FC000096801F4807109B1012000E000207047F8
:104FD000003801400000274200042742F9480068D9
:104FE00040F00100F74908600020F64908310860E8
:104FF000F4480068F4490840F2490860F348091D84
:105000000860F348EF4984310860F0481038091D02
:105010000860EC48006820F48020EA49086000201D
:10502000E8490C310860E7498C310860704700217D
:10503000E44A921C117011460870704710B5014681
:105040000022002300204A11012A02D1DD4C2368EE
:1050500008E0022A03D1DB4C7034236802E0D94C0B
:105060007434236801F01F02012494401C400CB1E9
:10507000012000E0002010BD38B500200090002481
:10508000002500BF3120FFF7D9FF05460098401CDE
:1050900000900098B0F5A04F01D0002DF2D0312043
:1050A000FFF7CCFF08B1012400E00024204638BD02
:1050B00001460020C34A106820F0F80040EAC10011
:1050C00010607047C349086070470021BD4A7032C4
:1050D00011701170012802D004280AD104E00121C6
:1050E000B84A7032117005E00521B64A703211706D
:1050F00000E000BF00BF7047B7490860704770B557
:10510000049C41EA82150126C6EB530645EA064592
:10511000054345EA0465AB4E361D356070BDAD49AB
:1051200008667047820142EA0172A64B84331A6016
:105130007047A8498866704710B5830143EA016348
:1051400043EA02739F4C8834236010BDA14908676D
:105150007047A049C864704702460020994B083345
:10516000186820F0EC6042EA01031843954B0833BD
:105170001860704702460020924B0833186820F0F0
:10518000784042EA010318438E4B08331860704799
:10519000014600208B4A0832106820F003000843C3
:1051A0001060704787480830006800F00C007047B6
:1051B00001460020834A0832106820F0F0000843BE
:1051C00010607047014600207E4A0832106820F4C3
:1051D000E05008431060704701460020794A0832C9
:1051E000106820F4604040EAC10010607047F0B5DC
:1051F000002100220024022500260223714F0837D7
:105200003F6807F00C0121B1042905D0082937D1E6
:1052100005E0724F076036E0714F076033E0694F79
:105220003F1D3F68C7F38056664F3F1D3F6807F03C
:105230003F036EB16A4FB7FBF3F7DFF888C10CF19B
:10524000040CDCF800C0CCF3881C07FB0CF40CE069
:10525000624FB7FBF3F7DFF86CC10CF1040CDCF81C
:1052600000C0CCF3881C07FB0CF4564F3F1D3F6871
:10527000C7F301477F1C7D00B4FBF5F7076002E030
:10528000564F076000BF00BF4E4F08373F6807F01A
:10529000F0010909534F7A5C0768D7404760494FCE
:1052A00008373F6807F4E051890A4E4F7A5C476837
:1052B000D7408760434F08373F6807F46041490B88
:1052C000484F7A5C4768D740C760F0BD002100F4C2
:1052D0004072B2F5407F0AD13A4A0832116821F48F
:1052E000F811414A02401143364A08321160354AEA
:1052F00070321268C0F30B031A43324B70331A60DA
:10530000704735494439086070473349403908606F
:10531000704736490860704701460020294A8C32A0
:10532000106820F01F004A1E1043264A8C3210607D
:10533000704701460020234A8C32106820F4F85050
:105340004A1E40EA02201F4A8C3210607047014614
:1053500000201C4A8C32106820F440100843106072
:10536000704701460020174A8C32106820F4400034
:1053700008431060704701460020124A8C321068C2
:1053800020F44030084310607047194908607047A6
:1053900039B10C4A3032126802430A4B30331A607A
:1053A00006E0084A303212688243064B30331A60F6
:1053B0007047F9B1034A343212680243014B343367
:1053C0001A601CE000380240FFFFF6EA10300024AB
:1053D0000030002000004742800E47420024F400C5
:1053E00000127A00B8010020FFFCFF0F5C01474269
:1053F000E01147428F4A126882438E4B1A60704711
:1054000039B18C4A121D126802438A4B1B1D1A6067
:1054100006E0884A121D12688243864B1B1D1A60E3
:10542000704739B1834A0C3212680243814B0C3306
:105430001A6006E07F4A0C32126882437D4B0C33BF
:105440001A60704739B17B4A103212680243794BB7
:1054500010331A6006E0774A103212688243754BA7
:1054600010331A60704739B1724A243A1268024305
:10547000704B243B1A6006E06E4A243A126882435D
:105480006C4B243B1A60704739B16A4A203A126863
:105490000243684B203B1A6006E0664A203A1268D5
:1054A0008243644B203B1A60704739B1614A1C3A11
:1054B000126802435F4B1C3B1A6006E05D4A1C3ACF
:1054C000126882435B4B1C3B1A60704739B1594AE2
:1054D000143A12680243574B143B1A6006E0554ACF
:1054E000143A12688243534B143B1A60704739B127
:1054F000504A103A126802434E4B103B1A6006E0C5
:105500004C4A103A126882434A4B103B1A6070476B
:1055100039B1484A1C3212680243464B1C331A60A8
:1055200006E0444A1C3212688243424B1C331A6024
:10553000704739B13F4A2032126802433D4B203355
:105540001A6006E03B4A203212688243394B20330E
:105550001A60704739B1374A243212680243354B1A
:1055600024331A6006E0334A243212688243314BF6
:1055700024331A60704739B12E4A2C321268024324
:105580002C4B2C331A6006E02A4A2C3212688243D4
:10559000284B2C331A60704739B1264A30321268D2
:1055A0000243244B30331A6006E0224A303212683C
:1055B0008243204B30331A607047012808D11D49BF
:1055C0003C31096841F008011A4A3C32116007E099
:1055D00018493C31096821F00801164A3C32116033
:1055E000704739B1134A273A12780243114B273BCF
:1055F0001A7006E00F4A273A127882430D4B273B78
:105600001A7070470B484030006840F080700949BC
:1056100040310860704701460020064A283A126867
:105620000A400AB1012000E00020704701492639F4
:10563000087070473438024010B501210802FFF7A6
:1056400056FF00214FF48070FFF751FF10BD30B5B9
:105650000246002000235068F84C20400D790C6869
:1056600044EA0524204350609068F54C2040D1E97D
:1056700003542C438D682C434D7944EA4504204360
:105680009060D06A20F470000C7D641EE4B2234365
:1056900040EA0350D06230BD0021016001714171C8
:1056A0008160C16001610121017570470021E54AF7
:1056B0001168E54A1140D0E900231A4383681A4370
:1056C000C3681A431143E14AC2F80413704700212A
:1056D000016041608160C160704721B1826842F021
:1056E0000102826003E0826822F00102826070475A
:1056F0000A4600214168D64B19401143416070476A
:105700004162826270470A460021416821F01F0110
:1057100011434160704738B1CA49096841F400013A
:10572000CA4AC2F8041306E0C649096821F4000118
:10573000C64AC2F80413704738B1C249096841F437
:105740008001C24AC2F8041306E0BE49096821F488
:105750008001BE4AC2F804137047F0B504460D46F6
:1057600000200021092D11DDE068A5F10A0606EBF5
:105770004607072606FA07F18843A5F10A0606EB55
:10578000460603FA06F10843E0600CE0206905EBE9
:105790004507072606FA07F1884305EB450603FA95
:1057A00006F108432061072A0FDA606B561E06EBEC
:1057B00086071F2606FA07F18843561E06EB860663
:1057C00005FA06F10843606322E00D2A0FDA206B28
:1057D000D61F06EB86071F2606FA07F18843D61F59
:1057E00006EB860605FA06F10843206310E0E06A3E
:1057F000A2F10D0606EB86071F2606FA07F188437D
:10580000A2F10D0606EB860605FA06F10843E062F2
:10581000F0BD816841F08041816070470146002001
:105820008A6802F080420AB1012000E0002070473F
:1058300021B1826842F48062826003E0826822F4CF
:1058400080628260704721B1826842F00202826009
:1058500003E0826822F002028260704710B50A46B7
:1058600000210023416821F46041531E41EA433185
:10587000416010BD21B1426842F40062426003E021
:10588000426822F40062426070470146C86C80B2F0
:1058900070476C48001D0068704721B1826842F46F
:1058A0008072826003E0826822F4807282607047B6
:1058B00021B1826842F40072826003E0826822F4BF
:1058C00000728260704738B15E49096841F4005146
:1058D0005E4AC2F8041306E05A49096821F40051EF
:1058E0005A4AC2F804137047F0B504461546002022
:1058F00000220026092911DDE068A1F10A0707EB63
:10590000470C072707FA0CF29043A1F10A0707EBAF
:10591000470703FA07F21043E0600CE0206901EB4F
:10592000410C072707FA0CF2904301EB410703FAF9
:1059300007F210432061A06BC0F30156EF1C06F183
:10594000010CA7EB0C0707EB870C1F2707FA0CF2DB
:105950009043EF1C06F1010CA7EB0C0707EB870740
:1059600001FA07F21043A063F0BD10B50A4600210A
:105970000023816B21F44011531E41EA03518163DE
:1059800010BD08B5002300930090009B0B440093CA
:10599000009B1A6008BD0A460021816821F470212D
:1059A0001143816070470A460021816821F440114B
:1059B000114381607047816841F4800181607047C4
:1059C000014600208A6802F480020AB1012000E04A
:1059D0000020704721B1426842F48062426003E0D7
:1059E000426822F480624260704721B1426842F40A
:1059F0008052426003E0426822F480524260704765
:105A000008B5024600200090009201F12800009B9A
:105A1000184400900098006880B208BD10B50B468D
:105A20000021D9B2012404FA01F11AB144680C43EF
:105A3000446002E044688C43446010BDFFFEFFFCFC
:105A4000FDF7FFC004230140E030FCFF00200140CF
:105A5000FFFD3FFF0246002013680B400BB1012001
:105A600000E000207047CA430260704770B50246EC
:105A70000020002300240B12556801268E4005EA01
:105A8000060415681D4015B10CB1012000E000208E
:105A900070BD00220A12D3430360704710B504465C
:105AA000FE48844209D101214806FFF70FFD00217D
:105AB0004FF00070FFF70AFD08E001218806FFF7AC
:105AC00005FD00214FF08060FFF700FD10BD30B5EF
:105AD000024600200023146824F0020414601468B5
